:020000020000FC
:1000000011E0D0E00FEFD6BD099A0A9A0B9A119A27
:10001000129A139AB0E027E72098219A089A299813
:100020000E943700299A0E943B002998189901C024
:10003000FDCFD5E0D5BD189B01C0FDCF46B5D0E0C2
:10004000D5BDD6BD6AEAB42FB695F42FF1500AF1AA
:100050000E944C00E1E0D0EF10980E943F00109AFF
:100060000E943F00DA95C1F7EA95A9F7D8CF31E1B0
:100070003A95F1F7089525E32A95F1F7089551E0AF
:100080002B2F3FEF3A95F1F72A95D9F75A95C1F7FB
:0E0090000895129A1398C3CF139A12980895E8
:00000001FF
